:020000040800F2
:10000000B02F00207D3B0008C9050008CB05000883
:10001000CD050008CF050008D1050008000000004C
:10002000000000000000000000000000D3050008F0
:10003000D505000800000000D7050008D905000814
:10004000973B0008973B0008973B0008973B000848
:10005000973B0008973B0008973B0008973B000838
:10006000973B0008973B0008973B00084D1E00088F
:10007000973B0008973B0008973B0008973B000818
:10008000973B0008973B0008973B0008973B000808
:10009000973B0008973B0008973B0008973B0008F8
:1000A000973B0008973B0008973B0008973B0008E8
:1000B000973B0008973B0008973B0008973B0008D8
:1000C000973B0008973B0008973B0008973B0008C8
:1000D000973B0008C51F0008973B0008973B0008A6
:1000E000973B0008973B0008973B0008973B0008A8
:1000F000973B0008973B0008973B0008973B000898
:10010000973B0008973B0008973B0008973B000887
:10011000973B0008973B0008973B0008973B000877
:10012000973B0008973B0008973B0008973B000867
:1001300000F002F800F04DF80AA090E8000C8244AC
:100140008344AAF10107DA4501D100F042F8AFF289
:10015000090EBAE80F0013F0010F18BFFB1A43F0A5
:1001600001031847A46F0000C46F0000103A24BFB9
:1001700078C878C1FAD8520724BF30C830C144BF0C
:1001800004680C607047000000230024002500264E
:10019000103A28BF78C1FBD8520728BF30C148BFEA
:1001A0000B607047662905F0AA87642904F0128164
:1001B000782904F04B81002070471FB504F0BEFC85
:1001C00004000020002105F027FAE0601FBD10B5F3
:1001D00010BD04F0B7FD1146FFF7EFFF00F0CFF8B8
:1001E00004F0D5FD03B4FFF7F2FF03BC01F094FE69
:1001F0007FB5E64C48F230400021208074238022F5
:10020000084601F014F91F20208080233722742132
:10021000002001F00CF90C20DDA1CDE90010012532
:100220001F23DA0202957421002001F0ACFB4FF687
:10023000E070208080236E227421372001F0F7F8CF
:10024000D3A30C2274213720009501F0D3F94FF489
:10025000FC60208080231A4674216E2001F0E7F8AC
:1002600001F0DDFD05F0AAFDCB4905F0A9FC05F084
:1002700007FC02460B46C9A103A804F06FF803ABC4
:100280000C2274216E20009501F0B4F97FBD30B5C9
:1002900087B0044600200D46BC49039004900590A9
:1002A0001F200880802337227421002001F0BFF82E
:1002B000284605F0E5FBCDE900012246B9A103A8D7
:1002C00004F04CF801220C2103A88DE807001F233D
:1002D000DA027421002001F056FB07B030BD30B5C2
:1002E00087B0044600200D46A8490390049005906D
:1002F0004FF6E070088080236E227421372001F0D1
:1003000096F8284605F0BCFBCDE900012246A5A1E0
:1003100003A804F023F801220C2103A88DE80700AC
:100320001F23DA027421372001F02DFBD5E71FB51A
:100330000021039195494FF4FC6204460A80802312
:100340001A4674216E2001F072F8204605F036FD41
:10035000914905F035FC05F093FB02460B4694A14C
:1003600003A803F0FBFF01220C2103A88DE807007E
:100370001F23DA0274216E2001F005FB1FBDC2B0FD
:1003800001F07EFD4FF4A06001F050FE4FF4E1302B
:1003900001F0CCFD00F0CEF900F03CFA00F02FFEA9
:1003A0004FF6FF7000F047FF00F0D3FA01F02CFD8C
:1003B000642001F037FD01F0FDFBFFF719FFDFF8C6
:1003C000F8814FF02509002000F04CFA012802D0F6
:1003D00002280AD016E079490878401CC0B208709B
:1003E00003280FD3002008700CE001F018FD440032
:1003F0007348844200D36424204601F013FD204654
:10040000FFF795FF614848F23041742301800021D5
:100410008022084601F00BF86848007800287CD05C
:1004200001284FF0010477D001AF4FF01F0A464674
:100430004D4636F82400B0FBF5F0C0F17400C3B2AD
:10044000C4F1800082B23B553819CDF800A010F8F5
:10045000011CC4F1810080B200F038FF641C802CC4
:10046000E7DBB046012421AF4FF6E07608EB8400CD
:100470004088B0FBF5F0C0F17400C3B2C4F1800055
:1004800082B23B553819009610F8011CC4F1810066
:1004900080B200F01BFF641C802CE7DB002003F01F
:1004A0003FFC05F06BFC0746012003F039FC05F02A
:1004B00065FC0646002003F01AFC05F07FFC05F001
:1004C000DFFADFF800A14FF066342246534605F00C
:1004D000F3F86FF00B0B5A4605F045FE05F0B2F845
:1004E0000546012003F003FC05F068FC05F0C8FA9E
:1004F0002246534605F0E0F85A4605F034FE05F072
:10050000A1F8044629463846FFF7C1FE2146304689
:10051000FFF7E5FE57E700E01BE0012401AD1F26D1
:10052000474637F82410B1FBF9F0C0F17400C3B2AC
:10053000C4F1800082B22B552819009610F8011CD6
:10054000C4F1810080B200F0C1FE641C802CE8DBA5
:10055000A4E721AD46464FF6E07706EB84004188DC
:10056000B1FBF9F0C0F17400C3B2C4F1800082B2F3
:100570002B552819009710F8011CC4F1810080B296
:1005800000F0A4FE641C802CE7DB87E73400002029
:1005900031485A315600000000007A4425332E318C
:1005A000664B00002564485A25312E3166560000FE
:1005B00025332E316600000084100020000000204A
:1005C00020A1070066660A407047FEE7FEE7FEE7E7
:1005D000FEE7704770477047704700000CB5002277
:1005E0004C4800920192016841F4803101604FF45F
:1005F000A063016801F4003101910099491C009148
:10060000019911B900999942F3D10168890333D551
:100610000121019140490A6842F010020A600A680B
:1006200022F003020A600A6842F002020A6041688E
:10063000416041684160416841F4806141604168C6
:1006400021F47C114160416841F4E8114160016886
:1006500041F08071016001688901FCD5416821F099
:1006600003014160416841F0020141604168C1F30A
:1006700081010229FAD10CBD01920CBD254810B5AB
:10068000016841F0010101604168244A1140416064
:100690000168234A11400160016821F48021016052
:1006A000416821F4FE0141604FF41F018160FFF7B2
:1006B00095FF1C494FF00060086010BD154A10B549
:1006C0005068194B10F00C01184803D0042901D0D0
:1006D000082901D0036012E05168536801F47011D9
:1006E0004FF0020413F4803F04EB914102D05368B1
:1006F0009B0301D50E4B00E00B4B59430160516841
:100700000A4AC1F30311121D515C0268CA4002601B
:1007100010BD000000100240002002400000FFF861
:10072000FFFFF6FE08ED00E000127A000400002052
:1007300000093D00F0B535480021826942F004020D
:100740008261826942F020028261314E02250324D7
:1007500001EB410006EB8000027A072A13D84368B8
:10076000D3F800C005EB820204FA02F22CEA020C74
:10077000C3F800C042681368007A800004FA00F7EA
:100780003B43136014E04368A2F10807D3F804C0A8
:1007900005EB870704FA07F72CEA070CC3F804C037
:1007A000406843689200203A04FA02F73B434360F2
:1007B000491C0229CCD3F0BD00EB4001144830B5F0
:1007C00000EB81004168CB68047A012505FA04F248
:1007D0001343CB60457230BD00EB40010C4810B5AF
:1007E00000EB81004168CA68047A0123A3409A4360
:1007F000CA600021417210BD054A00EB400102EBC6
:100800008101497A012900D0D6E7E5E700100240CE
:100810001800002038B50121142002F036F801211B
:10082000384801F0D5FE0220ADF80000364D4824CE
:100830008DF803406946284601F03FFE6914ADF883
:1008400000108DF803406946284601F036FE01206D
:10085000ADF8000028208DF8030069462B4801F010
:100860002CFE38BD2DE9F0410126294CDFF89C8093
:10087000254D770308B1267001E0207878B1022178
:10088000284601F070FE88B13946284601F06BFE1B
:1008900060B10121404601F066FE012806D0022128
:1008A000284601F060FE01281DD028E00A2001F052
:1008B00015FB002020700221284601F054FE58B19B
:1008C0003946284601F04FFE48B10121404601F06B
:1008D0004AFE012805D012E00120BDE8F081022087
:1008E000FBE70320F9E73946284601F03CFE0128E2
:1008F00005D10121404601F036FE00B926700020E6
:10090000EBE7000000023000001001400008014049
:100910003000002070B5C74D0024C5F888419020F4
:1009200005F5C47500F092F9002000F08FF9002061
:1009300000F08CF9002000F089F9FF2000F086F922
:1009400044EA0024FF2000F081F9204301212960BE
:1009500070BD38B50121042001F097FF1C20ADF8CF
:10096000000010208DF803000320B34C8DF8020026
:100970006946204601F0A1FD1C21204601F007FE3A
:1009800000F08AF9082000F0BEF9FFF7C3FFAB4979
:1009900008800146AAA003F0D5FC38BD10B5A54CCF
:1009A0000020C4F88801052004F5C47400F04EF955
:1009B000FF2000F04BF90121216010BD70B59D4C66
:1009C00000210546C4F88811012004F5C47400F024
:1009D0003DF9284600F03AF90120206070BD10B5BD
:1009E000944C0020C4F88801062004F5C47400F07B
:1009F0002DF90120206010BD10B58E4C0020C4F8E8
:100A00008801042004F5C47400F020F9012020605E
:100A100010BD2DE9F041874F0646002015460C46D3
:100A2000C7F88801032000F011F9C4F3074000F073
:100A30000DF9C4F3072000F009F9E0B200F006F95F
:100A4000002405E0FF2000F001F93055641CA4B239
:100A5000AC42F7D30120C7F88801BDE8F08110B59A
:100A6000FFF79CFFC007FBD110BD2DE9F0411546F3
:100A70000C460646FFF7B3FF6E4F0020C7F888010B
:100A8000022000F0E3F8C4F3074000F0DFF8C4F3FD
:100A9000072000F0DBF8E0B200F0D8F8002404E012
:100AA000305D00F0D3F8641CA4B2AC42F8D301204E
:100AB000C7F88801BDE8F041D1E72DE9F0410746CC
:100AC000C8B2C0F580740E461546A24200D814463E
:100AD0004FF48078224631463846FFF7C6FFA542DC
:100AE000BBD0281B2744264485B24446A542F1D8F2
:100AF0002C46EFE7B1E770B50403FFF770FFFFF78F
:100B0000AEFF4C4D0020C5F88801202005F5C475C6
:100B100000F09CF8C4F3074000F098F8C4F30720F5
:100B200000F094F8E0B200F091F801202860BDE8F0
:100B3000704094E72DE9F05FC1F30B060F0BC6F58B
:100B40008054894680461546A24200D81446DFF8F4
:100B5000F8A039038B464FF480523B48FFF759FF0A
:100B6000002006E032181AF80210FF2903D1401CB9
:100B700080B2A042F6D3A04221D23846FFF7BBFF95
:100B80000020524605E018F800108319401CD1548B
:100B900080B2A042F7D359464FF480522A48FFF75B
:100BA0008CFFA5420FD0281BA044A144002685B28B
:100BB0004FF480547F1CA542CBD82C46C9E722466F
:100BC00049464046EBE7BDE8F09F10B5FFF707FF49
:100BD000FFF745FF174C0020C4F88801C72004F533
:100BE000C47400F033F801202060BDE8104036E7FF
:100BF00010B5104C0020C4F88801B92004F5C47465
:100C000000F024F801202060BDE81040032001F02E
:100C10004EB910B5074C0020C4F88801AB2004F58C
:100C2000C47400F013F801202060BDE810400320D8
:100C300001F03DB9000021420008014032000020CF
:100C40002578200A000000006400002070B50646E8
:100C50000024334D03E0641CE4B2C82C0FD80221F9
:100C6000284601F06DFF0028F5D03146284601F0F6
:100C700023FF002405E0641CE4B2C82C01D9002045
:100C800070BD0121284601F05BFF0028F3D0284603
:100C900001F014FFC0B270BD38B5012141F204006B
:100CA00001F0F3FDE020ADF8000018208DF80300FE
:100CB00003201C4C8DF802006946204601F0FDFB24
:100CC000E021204601F063FC174800214FF48272B6
:100CD0000180428081800222C28001220281520270
:100CE000428138228281C181072101820C4C014658
:100CF000204601F03DFE0121204601F0B5FEFF2017
:100D0000FFF7A4FF38BD10B50749054C8881204680
:100D100001F02EFE2046BDE81040012101F0A4BEE6
:100D200000300140000801406410002070B5FF4C05
:100D300008210B03251D8A02060601D5236000E069
:100D40002B602A6022604006000E491E11F0FF0150
:100D5000F2D170BD10B500204FF4FA63F44A02E0FE
:100D6000401C98420AD81488A407F9D5F04C241DD9
:100D70002180002004E0401C984201D9002010BDD1
:100D80001188C907F7D02088C0B210BD028822F0B0
:100D9000380202800129018801D041F02001018040
:100DA000018841F0400101807047F0B587B0012112
:100DB000192001F06AFD4FF42040ADF80000032433
:100DC000DA4F8DF8024018208DF80300103F694675
:100DD000384601F072FB4FF48046ADF800604820C1
:100DE0008DF803008DF802406946384601F065FB36
:100DF00041F20200ADF800008DF8024010258DF898
:100E000003506946384601F058FB4020ADF8000019
:100E10008DF80240C74C8DF803506946204601F01A
:100E20004CFBA114384601F0B4FB4021204601F0F0
:100E3000B0FB0121304601F031FD0020ADF8040087
:100E40004FF48271ADF80610ADF80C006115ADF8E5
:100E50000800ADF81000ADF80A00ADF81200B44C6F
:100E60000720ADF80E10ADF81400083C01A920468B
:100E700001F07EFD0121204601F0F6FD07B0F0BD36
:100E8000AA4910B5091D4FF480540C60A94A4021AD
:100E90005161C1B2A6480838FFF75CFFA34804605F
:100EA00010BDA24A10B5121D4FF480541460A14B1E
:100EB00040221A6101469E480838FFF74BFF9B48C5
:100EC000046010BD70B5044698484FF48055001D6D
:100ED0000560984940200861954E210A083E304639
:100EE000FFF738FFE1B23046FFF734FF8F48056067
:100EF00070BD10B50C46FFF7C3FFE0B2BDE810406F
:100F0000CFE78D480089BBE7F0B5DFF82CC2074674
:100F10001C4615460E46BCF80A00FFF7B1FF380A1A
:100F2000FFF7BFFFFF1CF8B2FFF7BBFF280AFFF770
:100F3000B8FFED1CE8B2FFF7B4FFBCF80C00FFF7F8
:100F40009FFF300AFFF7ADFFB61CF0B2FFF7A9FF15
:100F5000200AFFF7A6FFA41CE0B2FFF7A2FFBDE83E
:100F6000F040CEE70B460246CEE700B5FFF7FAFFAA
:100F70004FF478405DF804EBA4E710B51446FFF792
:100F8000F1FF2046BDE810409CE70020704738B5CF
:100F90000121082001F079FC4FF47040ADF8000009
:100FA000032562488DF8025010248DF803406946ED
:100FB000103801F082FA4020ADF800008DF80250A0
:100FC0008DF8034069465B4801F077FA38BD10B5EB
:100FD000642000F083FFBDE81040322000F07EBFA7
:100FE00055482C210181012181718021018041809E
:100FF0002A2141812B218181A821362079E710B552
:10100000FFF7D3FEFFF7E3FF1120FFF739FF78204A
:1010100000F064FFB120FFF733FF0120FFF741FF2D
:101020002C20FFF73EFF2D20FFF73BFFB220FFF7FC
:1010300027FF0120FFF735FF2C20FFF732FF2D207F
:10104000FFF72FFFB320FFF71BFF0120FFF729FF5A
:101050002C20FFF726FF2D20FFF723FF0120FFF7AD
:1010600020FF2C20FFF71DFF2D20FFF71AFFB420D3
:10107000FFF706FF0720FFF714FFC020FFF700FF70
:10108000A220FFF70EFF0220FFF70BFF8420FFF7DF
:1010900008FFC120FFF7F4FEC520FFF702FFC220C2
:1010A000FFF7EEFE0A20FFF7FCFE0020FFF7F9FE37
:1010B000C320FFF7E5FE8A20FFF7F3FE2A20FFF7A3
:1010C000F0FEC420FFF7DCFE8A20FFF7EAFEEE20E8
:1010D000FFF7E7FEC520FFF7D3FE0E20FFF7E1FE86
:1010E0003620FFF7CDFEC820FFF7DBFEE020FFF73C
:1010F000C7FE0F20FFF7D5FE1A20FFF7D2FE0F2004
:10110000FFF7CFFE1820FFF7CCFE2F20FFF7C9FE18
:101110002820FFF7C6FE2020FFF7C3FE2220FFF79E
:10112000C0FE1F20FFF7BDFE1B2007E0100C014092
:10113000083800400010014076100020FFF7B1FE93
:101140002320FFF7AEFE3720FFF7ABFE0020FFF7AE
:10115000A8FE0720FFF7A5FE0220FFF7A2FE102041
:10116000FFF79FFEE120FFF78BFE0F20FFF799FEB0
:101170001B20FFF796FE0F20FFF793FE1720FFF7C7
:1011800090FE3320FFF78DFE2C20FFF78AFE2920EA
:10119000FFF787FE2E20FFF784FE3020FFF781FE49
:1011A0003020FFF77EFE3920FFF77BFE3F20FFF760
:1011B00078FE0020FFF775FE0720FFF772FE032080
:1011C000FFF76FFE1020FFF76CFE2A20FFF758FE96
:1011D0000020FFF766FE0020FFF763FE0020FFF708
:1011E00060FE7F20FFF75DFE2B20FFF749FE002009
:1011F000FFF757FE0020FFF754FE0020FFF751FED7
:101200009F20FFF74EFEF020FFF73AFE0120FFF788
:1012100048FEF620FFF734FE0020FFF742FE3A209A
:10122000FFF72EFE0520FFF73CFE2920FFF728FEE2
:10123000BDE81040D4E6F0B5FE4E074600217088A8
:10124000401E83B23088401E82B20846FFF75CFE23
:1012500000250BE0002404E03846FFF733FE641C51
:10126000A4B27088A042F7D86D1CADB23088A842F5
:10127000F0D8F0BDF0B5141A641CA5B25C1A641C59
:101280005B1E521EA6B29BB292B2059FFFF73CFEB8
:101290004FF0000C0CE0002404E03846FFF712FE8B
:1012A000641CA4B2AC42F8D30CF1010C1FFA8CFC04
:1012B000B445F0D3DF4841880088491EBDE8F040BE
:1012C000401E8BB282B2002108461DE62DE9FE4F7A
:1012D0000026A2EB000882465F1A701E354689463A
:1012E000B8F1000F02DD4FF0010102E003D14FF031
:1012F0000001019102E0C8F100080190002F02DD19
:101300004FF0010002E003D14FF00000009002E036
:10131000C7F1000700904046B84501DD044600E0F3
:101320003C46601C4FF0000B029016E01FFA89F15A
:101330001FFA8AF00C9AFFF720FE46443D44A6426D
:1013400002DD0199361B8A44A54202DD00992D1B5E
:1013500089440BF101001FFA80FB02998B45E5DD02
:10136000BDE8FE8F2DE9FE4F0026A2EB0008824665
:101370005F1A701E35468946B8F1000F02DD4FF046
:10138000010102E003D14FF00001019102E0C8F138
:1013900000080190002F02DD4FF0010002E003D1B0
:1013A0004FF00000009002E0C7F1000700904046B7
:1013B000B84501DD044600E03C46601C4FF0000BE0
:1013C000029015E01FFA89F11FFA8AF0FFF7CDFDB0
:1013D00046443D44A64202DD0199361B8A44A5429B
:1013E00002DD00992D1B89440BF101001FFA80FBDF
:1013F00002998B45E6DDB3E7F0B51C4615460E466F
:1014000007460B46FFF7AEFF3A46234631461046E5
:10141000FFF7A8FF23462A4619463846FFF7A2FFE2
:101420002A4623463146BDE8F04010469AE718B5F3
:10143000814C24880094FFF71DFF18BD2DE9FF4F54
:1014400081B091460EAA834692E83100203800F020
:10145000FF0802989A4620447749401E83B20BEB5E
:1014600054000988401E009182B258460299FFF745
:101470004BFD4FF00006FDB146E00C2C05D06F4847
:1014800000EB08100027855D11E06D4808EB48016E
:1014900000EB8100F6E7E80702D009F0FF0001E069
:1014A0000AF0FF00FFF7FDFC6D087F1CFFB2B7EBF1
:1014B000540FF0D3761CF6B2A642DED326E00C2CF5
:1014C00008D05E4800EB08100025875D029800EB0D
:1014D000060A14E05A4808EB480100EB8100F3E7E4
:1014E0005549F807A1F8009006D00BEB05001FFA4C
:1014F0008AF180B2FFF739FD7F086D1CEDB2B5EBC4
:10150000540FEDD3761CF6B2A642D8D34A490098C0
:10151000088048494888401E83B2088805B0401EAC
:10152000BDE8F04F82B200210846EDE42DE9FF4FFF
:101530000446414883B088460088DDF840B0CDE9D4
:1015400001104BE03B490A88521EA2424FDB4988FA
:10155000491E41454BDB3A282BD02E282BD0303862
:10156000C0B28146374900EB490001EB0010A246AA
:1015700000270090C65D00252F4905980880300699
:1015800003D541462046FFF7F0FC4FF6FF70641C80
:1015900000EA4606A4B2A4EB0A000C280DD06D1C8C
:1015A000EDB2082DE8D37F1CFFB2302F0BD200988C
:1015B000E0E70A20D5E70B20D3E708F10100544605
:1015C0001FFA80F8EFE7B9F10A0F01D2103400E0FA
:1015D0000834DDF80480A4B20BF1010B9BF8000085
:1015E000A0F120015E29ADD913490298088007B007
:1015F000BDE8F08F2DE9FE471C4616460F4605460E
:10160000DFF83090DFF830A0DDF82C8022E0B9F868
:101610000020521EAA4222DBB9F80210491EB9422C
:101620001DDB8DE84101BAF80230BAF800203946D6
:10163000284609E07610002034000020B266000839
:101640003E620008A26C0008FFF7F8FE05EB5600AA
:1016500085B2641C2078A0F120015E29D7D9BDE8AD
:10166000FE870346012000E05843491EC9B2FBD261
:1016700070472DE9FF4F83B00027DDF840801D46FD
:1016800081463C464FF0010B4FEA5806DFF868A44C
:101690002BE0281B401EC1B20A20FFF7E2FF05998C
:1016A000B1FBF0F00A21B0FBF1F201FB120027B907
:1016B000691E8C4201DA48B101273030C0B28DE892
:1016C000010906FB049080B2514606E0202206FB89
:1016D00004908DE8040980B25146BAF800204B8886
:1016E0000499FFF7ABFE641CE4B2AC42D1D37EE7B1
:1016F0002DE9FF4F82B005468246022089464FF011
:1017000000084FF0800B0190FC490F9A08EB08107D
:1017100011F81030127893423CD101EB4000009058
:1017200041780F984078814234D109F10F0083B29B
:1017300005F10F0082B249462846FFF7E5FB002677
:10174000009800248719109890B1EB4904980880FC
:10175000B9782BFA04F0014203D049462846FFF736
:1017600004FC6D1CADB2A5EB0A00102827D009E0DF
:10177000B9782BFA04F0014201D0049800E00598F2
:10178000FFF7A0FB641CE4B2082CDCD3761CF6B295
:10179000202ED5D308F1010001991FFA80F8884561
:1017A000B2D3D7494888401E83B2088806B0401E8D
:1017B000BDE8F04F82B200210846FFF7A5BB09F152
:1017C000010055461FFA80F9E0E72DE9FF4F82B08E
:1017D00005468246022001900020894680464FF04F
:1017E000800B00EB800101EB4810C4490F9A443193
:1017F00011F81030127893423CD101EB4000009078
:1018000041780F984078814234D109F1170083B2B2
:1018100005F1170082B249462846FFF775FB0026FE
:10182000009800248719109890B1B3490498088053
:10183000B9782BFA04F0014203D049462846FFF755
:1018400094FB6D1CADB2A5EB0A00182827D009E067
:10185000B9782BFA04F0014201D0049800E0059811
:10186000FFF730FB641CE4B2082CDCD3761CF6B224
:10187000482ED5D308F1010080B2019980468842F4
:10188000AFD39F494888401E83B2088806B0401EE7
:10189000BDE8F04F82B200210846FFF735BB09F1E1
:1018A000010055461FFA80F9E0E72DE9FF4F82B0AD
:1018B00005468246012089464FF000084FF0800B14
:1018C00001908E490F9A08EB8810D831127811F8E0
:1018D000103093423CD101EB4000009041780F98CA
:1018E0004078814234D109F11F0083B205F11F0015
:1018F00082B249462846FFF707FB002600980024DD
:101900008719109890B17C4904980880B9782BFA0F
:1019100004F0014203D049462846FFF726FB6D1C20
:10192000ADB2A5EB0A00202827D009E0B9782BFA40
:1019300004F0014201D0049800E00598FFF7C2FAD4
:10194000641CE4B2082CDCD3761CF6B2802ED5D30E
:1019500008F1010001991FFA80F88845B1D3684960
:101960004888401E83B2088806B0401EBDE8F04F8C
:1019700082B200210846FFF7C7BA09F101005546B7
:101980001FFA80F9E0E72DE9FF4F83B08846DDE9D3
:101990001054064682464FF00009DFF864B1129FEA
:1019A0001DE0B9F1000F1ED0BBF80010091BB142B9
:1019B00018DBBBF80200011B414513DB4FF00009A7
:1019C000202C46D0CDE90057DDE90523182C4146EF
:1019D000304647D0FFF78CFE301986B2AD1C287810
:1019E0000028DED103E6BBF80020A2EB5402B2428D
:1019F000F8DBBBF802100A1B41464245F2DB8028A7
:101A000002D94FF00109EAE70D2810D00C2C15D0AF
:101A1000102C13D010218DE88300DDE90523414609
:101A20003046FFF70BFD0836B6B26D1CD7E708EB62
:101A300004001FFA80F856466D1CF6E78DE8910009
:101A4000DDE905233046FFF7F9FC06EB540086B2CA
:101A5000EBE7CDE90057DDE9052341463046FFF7C6
:101A600024FFB9E7FFF7B1FEB6E72DE9FE4F0546C3
:101A7000DDE90C47984691468A4620460E9E02F0C4
:101A800098FD1F4980B240420988CDE9004701EB2B
:101A9000C00000EBD07005EB500080B243464A46D0
:101AA00051460296FFF76FFF5AE470B5154601F1F3
:101AB000270293B200F1270292B2FFF725FA002421
:101AC0004FF4C86605EB440115F81400497840EA64
:101AD0000120FFF7F7F9641CB442F3DB08484188A2
:101AE0000088491E401EBDE870408BB282B20021C2
:101AF0000846FFF709BA000034000020E26E000833
:101B00007610002070B505464FF6FF70FFF793FB87
:101B10007F2300211A460846FFF7F6F900244FF408
:101B2000804605EB440115F81400497840EA01208D
:101B3000FFF7C8F9641CB442F3DB70BD2F4AD369C8
:101B400043F00403D3612E4A136823F0FF031360AC
:101B5000136843F0BB031360294A0832136843F447
:101B600040731360274A1080101F018025481038E9
:101B7000018841F060010180018841F00801018085
:101B8000018841F4C0410180018841F40061018075
:101B9000001D018841F480710180018841F4805169
:101BA0000180184880212C380180018841F0010112
:101BB0000180704700B5472144F62060FFF7BEFF63
:101BC000104942F2107010310880091D43F6982028
:101BD000088000BD00EB400101EBC000094900F5A1
:101BE000FA7010310880704700EB400101EBC00033
:101BF000044900F5FA701431088070470010024063
:101C0000040C01402C08004008B50121042000F01C
:101C10003CFE0320ADF8000000218DF803108DF884
:101C2000020069468F4800F048FC08BD08B5012154
:101C3000042000F02AFE0420ADF8000018208DF8E2
:101C4000030003208DF802006946864800F035FC49
:101C500008BD10B588B0FFF7E9FF0121084600F084
:101C60001DFE4FF08044204600F098FF40F2E63120
:101C7000ADF814104720ADF810000021ADF8161093
:101C8000ADF8121004A9204601F020F86020ADF84C
:101C900000000120ADF8020040F2F310ADF806009C
:101CA0000220ADF808006946204601F0B9F808B0F6
:101CB00010BD3EB504460121022000F0EFFD472093
:101CC000641EADF80000ADF804400020664CADF88D
:101CD0000600ADF802006946204600F0F7FF20211B
:101CE000204601F080FC0121204601F097FA3EBD1C
:101CF00008B50B208DF8000002208DF801000120AE
:101D00008DF802008DF80300684600F094F9022077
:101D100001F025FF01220221544801F0EDFE08BD2B
:101D200010B501218CB0084600F0A6FD4F4C2046AE
:101D300001F040FE4E4800904E480021CDE90101DF
:101D4000E014CDE90301802005904000069080005A
:101D50000790202008900002CDE90901694620463D
:101D600001F095FE0121204601F0BBFEFFF7C0FF08
:101D70000CB010BD10B5012186B0480200F085FD01
:101D80004FF4004000F015FD394C4C3C204600F06B
:101D9000A5F9012000218DF80400C004CDE902015D
:101DA000022000918DF805108DF81000694620463C
:101DB00000F0B0F9002301221946204600F02AFA6B
:101DC000002302220121204600F024FA01212046AE
:101DD00000F0D2F90121204600F0C4F9204600F0BD
:101DE000DEF9204600F0E0F90028FAD1204600F0A4
:101DF000E2F9204600F0E4F90028FAD1012120465A
:101E000000F042FA06B010BD10B5FFF7FDFE092044
:101E1000FFF74FFFFFF784FFBDE81040AAE7164821
:101E20000068704710B5044603F0E0FF0146134810
:101E300003F0C6FE4FF07E5104F0ECF803F09EFF75
:101E400009492C3108800C48046010BD10B50220EF
:101E500001F077FE002804D0BDE81040022001F018
:101E60007EBE10BD00080140000400400800024092
:101E70004C240140841000203800002000247449C4
:101E800010B56FF0040000F016F9204820490068F2
:101E9000B0FBF1F01F49C0B200EB40020870C2EB8A
:101EA000C0104FF6FF7202EAC000488010BD194909
:101EB000097848434FF0E021486100238B610869AD
:101EC00040F0010008610869C20701D0C003FAD5DB
:101ED000086920F0010008618B6170470D4949884D
:101EE00048434FF0E021486100238B61086940F0CE
:101EF000010008610869C20701D0C003FAD508696A
:101F000020F0010008618B61704700000400002090
:101F100000127A003C000020704740490A885206AF
:101F2000FCD53E4AC1B2121D1180704770B50546FE
:101F300086B0012144F2040000F0A7FC4FF40070C9
:101F4000ADF8100003248DF812401820344E8DF89F
:101F5000130004A9304600F0B0FA3015ADF81000B7
:101F600004208DF8130004A9304600F0A6FA2520BD
:101F70008DF814008DF815408DF8164001208DF86D
:101F8000170005A800F057F80020ADF80400ADF8E0
:101F90000600ADF80800ADF80C000C201F4CADF8A1
:101FA0000A0000956946204601F0A0FB012240F29C
:101FB0002551204601F017FC0121204601F009FCC3
:101FC00006B070BD70B5154C40F22551204601F0A9
:101FD000C1FC00280ED0204601F055FC114AC1B2C8
:101FE0001088030406D444044FF0000306D50A29E0
:101FF00001D0138070BD40F400400DE00D2909D0E0
:10200000C0F30D04084D401C80B229551080C7282C
:10201000EFD870BD40F48040108070BD00380140A2
:102020000008014040000020842000202849084387
:1020300028490860704730B50F23C2780178012520
:10204000F2B1244A126801F1E02102F4E062C2F523
:10205000E062120AC2F10404D3404278A2408478BC
:102060001C401443220181F80024007800F01F0175
:102070008D404009800000F1E020C0F8005130BDE3
:1020800001F01F0085404809800000F1E020C0F801
:10209000805130BD104A114001430E48001F0160BD
:1020A00070470C4A121D0029116801D0014300E05D
:1020B0008143116070474FF0E0210428086903D084
:1020C00020F004000861704740F00400FAE70000C7
:1020D0000000FA050CED00E080FFFF1FC54910B5B8
:1020E000884202D1012144150AE0C349884202D145
:1020F0000121041504E0C14988420AD10121CC0321
:10210000204600F0D4FB2046BDE81040002100F03E
:10211000CEBB10BD10B54268B94B0C791A400B68A4
:1021200042EA0422134343608268B64B1A40D1E965
:10213000024323434C7942EA440213438360C26A58
:10214000097C22F47002491EC9B242EA0151C162FF
:1021500010BD00210160017141718160C1600121E8
:10216000017470470029816802D041F0010101E04B
:1021700021F00101816070470029816802D041F49B
:10218000807101E021F4807181607047002A42680B
:10219000C9B201D00A4300E08A43426070478168B7
:1021A00041F00801816070470146002089680907F5
:1021B00000D501207047816841F0040181607047BB
:1021C000014600208968490700D501207047002991
:1021D000816802D041F4A00101E021F4A0018160F6
:1021E0007047014600208968490200D501207047E8
:1021F0004268491E22F4604242EA41314160704720
:102200000029416802D041F4006101E021F400613D
:102210004160704770B5072609290AD9C568A1F140
:102220000A0404EB4404A640B543A3401D43C56023
:1022300007E0056901EB4104A640B543A3401D43F7
:1022400005611F23072A09D2446B521E02EB82024A
:1022500093409C4391400C43446370BD0D2A09D2C6
:10226000046BD21F02EB820293409C4391400C43CB
:10227000046370BDC46A0D3A02EB820293409C4332
:1022800091400C43C46270BD0029816802D041F4C2
:10229000801101E021F4801181607047C06C80B230
:1022A000704754484C30006870470029416802D09C
:1022B00041F4806101E021F48061416070470029B0
:1022C000416802D041F4805101E021F48051416025
:1022D0007047826822F4E0420A4382607047002916
:1022E000816802D041F4004101E021F400418160A5
:1022F00070470029816802D041F4021101E021F405
:10230000021181607047014600208968890200D56A
:102310000120704770B5072609290AD9C568A1F1BF
:102320000A0404EB4404A640B543A3401D43C56022
:1023300007E0056901EB4104A640B543A3401D43F6
:102340000561836BC3F30154121B921C02EB8202E2
:102350001F249440A34391400B43836370BD826B61
:10236000491E22F4401242EA01518163704708B5C8
:1023700008440090026008BD08B508442830009069
:10238000006880B208BD42681F4B1A400A43426091
:102390007047416282627047426822F01F020A431E
:1023A00042607047134908310028086802D040F4A1
:1023B000000001E020F400000860704702460020A1
:1023C00012680A4200D001207047C943016070477B
:1023D00010B50246002054680B0AC9B20C401168BF
:1023E000194202D0002C00D0012010BD6FEA11214B
:1023F000016070470024014000280140003C01407A
:10240000FFFEF0FFFDF7F1FFFFFD3FFF8F4910B525
:10241000884206D10121042000F049FA002104205D
:102420003BE08B49884206D10121082000F03FFAA9
:102430000021082031E08749884206D1012110207F
:1024400000F035FA0021102027E08349884206D1A8
:102450000121202000F02BFA002120201DE07F49DF
:10246000884206D10121402000F021FA00214020BD
:1024700013E07B49884206D10121802000F017FA41
:102480000021802009E0774988420AD18415012182
:10249000204600F00CFA00212046BDE8104000F074
:1024A00006BA10BD10B50121084600F000FA00215F
:1024B000BDE81040012000F0FAB9F0B5CC78002258
:1024C00004F00F03E40601D58C7823430C784FF019
:1024D0000F0C14F0FF0F4FF0010E1BD005680E8893
:1024E0000EFA02F42640A64210D196000CFA06F726
:1024F00025EA070703FA06F5CE783D43282E02D0D9
:10250000482E02D002E0446100E00461521C082A17
:10251000E5D305600A88FF2A1CD94468002202F12D
:1025200008060EFA06F50E882E40AE420ED1960031
:102530000CFA06F7BC4303FA06F7CE783C43282E84
:1025400000D14561CE78482E00D10561521C082A81
:10255000E5D34460F0BD4FF6FF7101800221817028
:102560000421C17070470246002092680A4200D0E0
:1025700001207047806880B2704702460020D26810
:102580000A4200D001207047C06880B270470161E4
:102590007047416170470AB10161704741617047FE
:1025A000C160704741F480328261816182618169DA
:1025B000806970472C4B10B51A684FF68074224022
:1025C00042EA00100843186010BD2849C8617047EE
:1025D000F0B5254C002801DAE36900E06368450D99
:1025E0002E0185B2C0F30157B540C0F30342032F5B
:1025F00005D0C6020AD503269640B34307E023F070
:102600007062636823F07063636002E0AB4343F081
:10261000706201B12A43002801DAE261F0BD626014
:10262000F0BD10B58A0721F003040F49120F2144B1
:102630000F238C6893409C438C608B6890400343CD
:102640008B6010BD0949C1F8DC00704700080140EB
:10265000000C01400010014000140140001801402E
:10266000001C014000200140000001400000204209
:10267000A548016841F0010101604168A34A114089
:1026800041600168A24A11400160016821F4802183
:102690000160416821F4FE0141604FF41F01816037
:1026A000704799490A6822F480320A600A6822F465
:1026B00080220A60B0F5803F07D0B0F5802F03D1AB
:1026C000086840F4A02008607047086840F4803033
:1026D000F9E70346002059098B4A01290AD002294B
:1026E0000AD0516A03F01F02012393400B4200D02D
:1026F000012070471168F5E7116AF3E718B500206B
:102700004FF4A06400903120FFF7E3FF0099491CCB
:102710000091A14201D00028F5D03120FFF7D9FF68
:10272000002800D0012018BD774A116821F0F80177
:1027300041EAC00010607047764908607047724BEC
:102740005A68084322F47C1210435860704771495C
:10275000086670476C4A516821F0030101435160DB
:1027600070476948406800F00C007047664A51683D
:1027700021F0F001014351607047634A516821F430
:10278000E0610143516070475F4A516821F4605134
:1027900041EAC000506070475B4A0029517A01D07D
:1027A000014300E08143517270475A49C1F8D80093
:1027B0007047554A516821F44041014351607047C8
:1027C0005149002281F8202081F82020012802D0E0
:1027D000042802D1052081F8200070474E49086086
:1027E000704749490A6A02430A6270474A494439B4
:1027F0000860704730B5444A5168484B11F00C01ED
:1028000003D0042901D0082901D0036012E05168E7
:10281000536801F470114FF0020413F4803F04EB8D
:10282000914102D053689B0301D53D4B00E03B4BE7
:102830005943016051680F2303EA1111394B5C5C65
:102840000168E14041605468072505EA14241C5DD5
:1028500021FA04F48460546805EAD4241B5DD9404D
:10286000C1605268032303EA92322E4B1B1F9A5C0D
:10287000B1FBF2F1016130BD234A0029516901D059
:10288000014300E08143516170471F4A002991696B
:1028900001D0014300E08143916170471A4A002949
:1028A000D16901D0014300E08143D1617047164AEC
:1028B0000029D16801D0014300E08143D160704715
:1028C000114A0029116901D0014300E081431161DF
:1028D000704711494039086070470E49C864704715
:1028E0000949C87170470848416A41F080714162E6
:1028F0007047054A0146002092680A4200D0012034
:102900007047014988727047001002400000FFF8CC
:10291000FFFFF6FE000042428004424200127A00AD
:1029200000093D004C000020994910B588420AD1A9
:10293000841401212046FFF7BAFF2046BDE810406D
:102940000021FFF7B4BF9349884202D1012104144A
:1029500004E0914988420AD10121C4132046FFF7BF
:10296000AFFF2046BDE810400021FFF7A9BF10BD12
:1029700030B502884C8802F441530A88CD8822433E
:102980008C882C4322430C8922434C8922438C8916
:102990002243CC8922431A430280828B22F40062B4
:1029A0008283098A018230BDF0B505460C460220BB
:1029B0000021AA8B85B001264FF240031A40AA835A
:1029C0002884AF8BA268022A21D0A08800B10226F9
:1029D0006846FFF70FFFE1880098B1F5007F2CD023
:1029E0007101B0FBF1F000EB8000A1684000B0FB8A
:1029F000F1F0401D80B20A21B0FBF1F000F00101BE
:102A0000401A4FF6FF72C0F34F0002EA0121821E06
:102A1000FE2A01D302200021E288084302432A84CF
:102A200020886188A2890843A1881143084338435C
:102A300040F40060A88305B0F0BD000AD3E7002190
:102A4000018041808180C180018141818181C1817A
:102A50000721018270470021018041808180C1806F
:102A600002228260818170470029018802D041F0F2
:102A7000400101E021F04001018070470029818B75
:102A800002D041F4806101E021F4806181837047CC
:102A9000090901238B40002A828899B201D00A4398
:102AA00000E08A4382807047002A828801D00A436E
:102AB00000E08A4382807047818170478089704737
:102AC000A1F57E420188FF3A02D041F4807101E015
:102AD00021F48071018070470029818802D041F083
:102AE000040101E021F0040181807047028822F492
:102AF0000062028002880A4302807047018841F424
:102B00008051018070470029018802D041F40051B2
:102B100001E021F4005101807047012901D0008BB0
:102B20007047808A7047008A7047B1F5804F0188EE
:102B300003D021F480410180704741F48041FAE7DD
:102B40000246002012890A4200D001207047C94382
:102B50000181704730B501F00F030125024605FAE7
:102B600003F40020A3B2090905FA01F49188A4B284
:102B7000128921401A4202D0002900D0012030BD24
:102B800001F00F0201219140C9430181704700000B
:102B90000030014000380040003C0040F94910B5C9
:102BA000884202D10121C41486E0B0F1804F09D0DF
:102BB000F54988420DD101210220FFF781FE002155
:102BC000022064E001210846FFF77AFE002101207F
:102BD0005DE0EE49884206D101210420FFF770FE36
:102BE0000021042053E0EA49884206D1012108204F
:102BF000FFF766FE0021082049E0E649884206D139
:102C000001211020FFF75CFE002110203FE0E24987
:102C1000884206D101212020FFF752FE002120200A
:102C200035E0DE49884202D10121441444E0DC4908
:102C3000884202D10121CC043EE0DA49884202D127
:102C400001210C0538E0D849884202D101214C0508
:102C500032E0D649884206D101214020FFF730FEFC
:102C60000021402013E0D249884206D10121802072
:102C7000FFF726FE0021802009E0CE4988420AD1D4
:102C8000841501212046FFF71BFE00212046BDE8E8
:102C90001040FFF715BEC849884202D101210C043B
:102CA0000AE0C649884202D101214C0404E0C4492B
:102CB00088420AD101218C042046FFF7F8FD204606
:102CC000BDE810400021FFF7F2BD10BD30B502880D
:102CD000AC4CB24DA0420DD0A8420BD0B0F1804F09
:102CE00008D0A94B984205D0A84B984202D0A84BD7
:102CF000984203D122F070034A881A43A54B9842A8
:102D000006D0A54B984203D022F44073CA881A43D8
:102D100002808A8882850A880285A0420AD0A84259
:102D200008D0A54A904205D0A44A904202D0A44AB5
:102D3000904201D1097A01860121818230BD30B5EE
:102D4000028C22F001020284028C8388048B22F020
:102D5000020224F073050C882C430D8915434A8820
:102D60002A43884DA8420BD08C4DA84208D0924DE2
:102D7000A84205D0914DA84202D0914DA8420DD154
:102D800022F008054A8923F440732A4322F00405FF
:102D90008A882A438D891D43CB892B4383800483F2
:102DA000C9888186028430BD70B5028C22F0100281
:102DB0000284028C8388048B0D8824F4E6464FF647
:102DC000FF7404EA052535430E8922F0200204EA47
:102DD000061616434A8804EA02123243694EB0428C
:102DE00002D06E4EB04215D122F080064A8923F4FB
:102DF000406304EA0212324322F040068A8804EA61
:102E0000021232438E8904EA86061E43CB8904EA05
:102E10008303334383800583C9880187028470BD9F
:102E200070B5028C22F480720284028C8388848BB9
:102E30000D8824F0730425430E894FF6FF7422F4A5
:102E4000007204EA062616434A8804EA0222324344
:102E50004C4EB04202D0514EB04215D122F4006621
:102E60004A8923F4405304EA0222324322F4806662
:102E70008A8804EA022232438E8904EA06161E4337
:102E8000CB8904EA0313334383808583C988818710
:102E9000028470BD70B5028C22F480520284058CCD
:102EA0008288838B0C8823F4E6464FF6FF7303EA8F
:102EB0000424344325F400560D8903EA05353543CF
:102EC0004E8803EA06362E432E4DA84202D0334DDB
:102ED000A84205D122F480458A8903EA82122A4356
:102EE00082808483C988A0F84010068470BD828BDC
:102EF00022F440628283828B4FF6FF7303EA012142
:102F00000A4382837047828B22F00C028283828B79
:102F10000A4382837047028B22F440620283028B51
:102F20004FF6FF7303EA01210A4302837047F0B5AD
:102F3000048C24F010040484078B048C4FF6FF7576
:102F400027F4734705EA03333B4305EA02221A4399
:102F50000C4B05EA011698420ED0104B98420BD04C
:102F6000B0F1804F08D0084B984205D0074B9842EB
:102F700002D0074B984225D124F02001314341F083
:102F8000100124E0002C0140000400400008004033
:102F9000000C0040001000400014004000340140CC
:102FA000004C014000500140005401400018004016
:102FB000001C00400020004000400140004401404F
:102FC0000048014024F0A0030B4343F010010283AA
:102FD0000184F0BD028B22F00C020283028B0A43B3
:102FE0000283704770B5048C24F001040484058BBF
:102FF000048C4FF6FF7606EA0313134325F0F3051E
:10300000F84A2B4390420ED0F74A90420BD0B0F1D1
:10301000804F08D0F54A904205D0F54A904202D040
:10302000F44A904202D124F0020201E024F00A02A4
:103030000A4342F001010383018470BD2DE9F84F7A
:103040000D4604460888E74FDFF89CC3DFF89C83F1
:10305000DFF89C934988AA882B894FF0804A48B3AF
:1030600004282FD04FF6FF760828934632D0208CC4
:103070009E4620F480502084A38B208C06EA0132E7
:10308000009223F4734306EA0B221A4306EA0E3336
:103090001343BC420AD0644508D0544506D0444589
:1030A00004D04C4502D0D34A944242D120F400507F
:1030B000009940E02046FFF795FFE9882046BDE8EB
:1030C000F84F87E72046FFF732FFE9882046BDE842
:1030D000F84F20E7208C20F480702084B4F81CE0A6
:1030E000208C06EA031306EA01222EF0F30E43EACF
:1030F0000B0343EA0E030092BC420AD0644508D099
:10310000544506D0444504D04C4502D0B94A9442B7
:1031100003D120F40070009901E020F420600843FE
:1031200040F48070A3832084E9882046BDE8F84FEE
:10313000E9E620F40240084340F48050A383208451
:10314000E9882046BDE8F84FD1E62DE9F0410C466C
:10315000002649880746012501B90226A288012ACE
:1031600000D10225208823890028384610D0FFF797
:10317000DEFEE1883846FFF7CEFE23892A46314637
:103180003846FFF72FFFE1883846BDE8F04121E7D8
:10319000FFF728FFE1883846FFF71CFF23892A46FE
:1031A00031463846FFF7C3FEE1883846BDE8F041B6
:1031B000B1E610B50A884B88CC881A438B88234324
:1031C0001A430B891A434B8989891A430A43A0F889
:1031D000442010BD4FF6FF71818000210180C18025
:1031E0004180017270470021018041808180C1804F
:1031F000018141818181C18170470021018041802D
:1032000001228280C18001817047002101804180BC
:103210008180C180018141818181704700290188BD
:1032200002D041F0010101E021F00101018070476D
:10323000002930F8441F02D041F4004101E0C1F3FD
:103240000E0101807047002A828901D00A4300E004
:103250008A4382817047818270471143A0F84810E9
:103260007047002A828901D00A4300E08A438281A4
:103270007047018921F0070101817047028922F01E
:1032800070020A430281704700B50346FFF7F6FF5C
:10329000188940F00700188100BD70B516460D462C
:1032A000602904464FF0010231460AD0FFF79AFE2A
:1032B00029462046FFF7E2FF208940F007002081E1
:1032C00070BDFFF734FEF3E730B504894FF6FF75A4
:1032D00005EA03231343E4B20B432343038130BDC8
:1032E00010B50446FFF7F0FF208940F077002081F9
:1032F00010BD10B50446FFF7E7FF208940F4804079
:10330000208110BD018582827047028822F0700200
:103310000A430280704770B50589048B068C25F03E
:1033200007050D434FF6FC410C4040F201110C43E0
:103330004FF6FF7101EA031126F0220611433143D3
:1033400005810483018470BD028B22F070020A4360
:1033500002837047028B4FF6FF7322F4E04203EAC8
:103360000121114301837047828B22F070020A43CE
:1033700082837047828B4FF6FF7322F4E04203EAA8
:1033800001211143818370470029018802D041F057
:10339000800101E021F080010180704700298188CF
:1033A00002D041F0040101E021F004018180704766
:1033B0000029818802D041F0080101E021F00801D4
:1033C000818070470029818802D041F0010101E02D
:1033D00021F0010181807047028B22F008020A432C
:1033E00002837047002C014000340140000400407B
:1033F00000080040000C0040028B4FF6FF7322F4DF
:10340000006203EA012111430183EAE7828B22F083
:1034100008020A438283E4E7828B4FF6FF7322F4AB
:10342000006203EA012111438183DAE7028B22F073
:1034300004020A430283D4E7028B4FF6FF7322F49F
:10344000806203EA012111430183CAE7828B22F0E3
:1034500004020A438283C4E7828B4FF6FF7322F48F
:10346000806203EA012111438183BAE7028B22F0D3
:1034700080020A430283B4E7028B4FF6FF73C2F364
:103480000E0203EA012111430183AAE7828B22F095
:1034900080020A438283A4E7828B4FF6FF73C2F354
:1034A0000E0203EA0121114381839AE7028C22F084
:1034B00002020A43028494E7028C22F008020A43C3
:1034C00002848EE7028C4FF6FF7322F0200203EA9B
:1034D00001111143018484E7028C4FF6FF7322F03F
:1034E000800203EA0111114301847AE7028C4FF64E
:1034F000FF7322F4007203EA01211143018470E793
:10350000028C4FF6FF7322F4006203EA012111439B
:10351000018466E7028C4FF6FF7322F4005203EA3F
:103520000131114301845CE710B50123048C8B4009
:103530009C430484038C8A401343038410BD10B55C
:103540000423048C8B409C430484038C8A401343E3
:10355000038410BD30B50124058C00F118038C40A4
:10356000A543058489B108290FD0091FC1F34E0076
:103570001844016821F4E041016001684FF6FF73CF
:1035800003EA02221143016030BD03EB51000168E0
:1035900021F0700101600168F4E70029018802D080
:1035A00041F0020101E021F00201018019E7002948
:1035B000018802D041F0040101E021F00401018002
:1035C0000FE70029818802D041F0800101E021F05D
:1035D0008001818005E7028822F0080202800288CB
:1035E0000A430280FDE6828822F07002828082888F
:1035F0000A438280F5E6028922F0070202810289ED
:103600000A430281EDE6028922F0800202810289EA
:103610000A430281E5E68184E3E68185E1E681866D
:10362000DFE60187DDE68187DBE6A0F84010D8E61B
:10363000028822F44072028002880A430280D0E6A7
:10364000808ECEE6008FCCE6808FCAE6B0F84000D0
:10365000C7E6808CC5E6008DC3E602460020128ACC
:103660000A4200D00120BCE6C9430182B9E6024605
:103670000020138A92890B4202EA010202D0002A3A
:1036800000D00120ADE6C9430182AAE6C44910B5C5
:1036900088420AD101218C032046FFF708F9204611
:1036A000BDE810400021FFF702B9BE49884202D1AF
:1036B00001214C0410E0BC49884202D101218C0454
:1036C0000AE0BA49884202D10121CC0404E0B84999
:1036D00088420AD101210C052046FFF7F1F8204667
:1036E000BDE810400021FFF7EBB810BD30B504462F
:1036F000008A85B00D464CF6FF710840E988014309
:103700002182A0894EF6F3110840A9882A89114325
:103710006A8902431143A181A08A4FF6FF41084004
:10372000A9890143A1826846FFF764F89C48844256
:1037300001D1039800E00298A189090400EBC001BF
:1037400001EB0010296801D5490000E08900B0FBB9
:10375000F1F06422B0FBF2F109010B096FF01805DA
:103760006B4300EB8300A3891D044FF0320306D5A1
:1037700003EBC000B0FBF2F000F0070005E003EB44
:103780000010B0FBF2F000F00F000843208105B0FC
:1037900030BD4FF41651016000218180C18001814C
:1037A0000C2242818181704710B5028A4FF2FF03DB
:1037B0001A400B884C8823438C88C9880C432343C8
:1037C0001343038210BD0021018041808180C180AC
:1037D00070470029818902D041F4005101E021F4B1
:1037E00000518181704710B5C1F3421301F01F04ED
:1037F0000121A140012B07D0022B07D01430002A51
:10380000026805D00A4304E00C30F8E71030F6E710
:103810008A43026010BD002A828A01D00A4300E078
:103820008A4382827047028A22F00F020282028A51
:103830000A4302827047828922F40062828182896F
:103840000A43828170470029818902D041F0020138
:1038500001E021F0020181817047028A22F02002FA
:103860000282028A0A43028270470029018A02D03A
:1038700041F4804101E021F4804101827047C1F3AD
:103880000801818070478088C0F3080070478189F3
:1038900041F0010181817047028BD2B20283028B19
:1038A00042EA012101837047028B02F47F420283C6
:1038B000028B0A43028370470029818A02D041F0BB
:1038C000200101E021F02001818270470029818AD6
:1038D00002D041F0100101E021F010018182704717
:1038E0000029818A02D041F0080101E021F008019D
:1038F000818270470029818902D041F4004101E0B2
:10390000C1F30E01818170470029818A02D041F400
:10391000006101E021F4006181827047828A22F017
:1039200004028282828A0A43828270470029818A45
:1039300002D041F0020101E021F0020181827047D2
:103940000246002012880A4200D001207047C94375
:103950000180704770B501F01F0501260024C1F3F6
:10396000421306FA05F2012B0FD0022B0FD0838AE7
:103970004FEA11210088134206FA01F600EA060018
:1039800001D000B10124204670BD8389F0E7038A8D
:10399000EEE70A0A01219140C94301807047000007
:1039A000003801400044004000480040004C004006
:1039B0000050004001684FF6FE7211400160002186
:1039C000016041608160C1606A496A4A0839904279
:1039D00003D1486840F00F0006E0664A1432904276
:1039E00004D1486840F0F00048607047614A2832CE
:1039F000904203D1486840F47060F5E75D4A3C327C
:103A0000904203D1486840F47040EDE7594A503283
:103A1000904203D1486840F47020E5E7554A64328B
:103A2000904203D1486840F47000DDE7514A783293
:103A3000904203D1486840F07060D5E74E4A111FAC
:103A4000904203D1086840F00F0006E04A4A143261
:103A5000904204D1086840F0F00008607047464A80
:103A60002832904203D1086840F47060F5E7424A7A
:103A70003C32904203D1086840F47040EDE73E4A82
:103A800050329042EAD1086840F47020E5E730B542
:103A9000026847F6F0739A430C6A8B682343D1E9B6
:103AA00004452C4323438C692343CC6923434C6A4C
:103AB00023438C6A234313430360CA6842600A6845
:103AC00082604968C16030BD002101604160816051
:103AD000C160016141618161C161016241628162D4
:103AE00070470029016802D041F0010102E04FF661
:103AF000FE72114001607047002A026801D00A433B
:103B000000E08A430260704741607047406880B2BD
:103B1000704702460020D10002D51749083901E05C
:103B2000144908390968114200D001207047C100CA
:103B300003D51149091F086070470E4908394860CC
:103B4000704702460020D10002D50B49083901E038
:103B5000084908390968114200D001207047C100A6
:103B600003D50549091F08607047024908394860B4
:103B700070470000080002400804024009488047DE
:103B800009480047FEE7FEE7FEE7FEE7FEE7FEE73F
:103B9000FEE7FEE7FEE7FEE704480549054A064B57
:103BA000704700007D06000831010008B0290020A0
:103BB000B02F0020B02B0020B02B00202DE9F041C9
:103BC0000546FEF72CF902F011F9614C6FF0070180
:103BD000206002F0F6FA60605E4E5F4F002406EB54
:103BE000840030F8150002F001F902F0ABF800048F
:103BF00047F82400641CA4B2FF2CF0D9BDE8F08182
:103C00002DE9F047DFF8549100246FF00E066FF0B5
:103C1000070A09F5007859F8240001B2071408468C
:103C200002F0CCF8082102F0CCFA314602F0C9FAD1
:103C30000546384602F0C2F8082102F0C2FA3146C1
:103C400002F0BFFA014602F019F907462946084674
:103C500002F014F9394601F03FFF01F011FF01F0C5
:103C6000B5FC524602F07FFA01F0ECFC54B1102191
:103C700002F0A7FA48F82400641CA4B2802CCAD32E
:103C8000BDE8F0870F2102F09CFAC8F80000F3E7C6
:103C900070B50025324E0124284656F8241002F053
:103CA000B9F801D256F82450641C802CF4DB284665
:103CB00070BD2DE9F0410027294D3E4601243846CC
:103CC00055F8241002F0A6F802D255F824702646C2
:103CD000641C802CF3DB304690E710B54FF4807203
:103CE0001D491E4800F03EF8BDE8104088E770B559
:103CF00000210C460B46012800DD0020154D4FF435
:103D0000806605EB810232F81020A24200DD1446E5
:103D10009A4200DA1346491CB142F2DBE01A70BD48
:103D200010B5FFF74BFFFFF7D8FFFEF778F802F06A
:103D30005DF80446FFF7BDFF02F040F86FF00701A1
:103D400002F03FFA2146BDE8104002F097B80000AB
:103D50005C000020841000204C2100204C25002015
:103D60004C2700202DE9F04F4FF0000C4FF00003DE
:103D700001EB1C6EBEF90250BEF900400EF5807ECC
:103D8000BEF90290BEF900800EF5807EBEF9027089
:103D9000BEF900600EF5807EBEF902B0BEF900A04B
:103DA0000EF5807ED044D944A8EB4A0AA9EB4B0B10
:103DB0004FEAA4044FEAA50504EBA60405EBA7050A
:103DC000A4EB6606A5EB670704EBA80405EBA905C1
:103DD000A4EB6808A5EB690906EBAB06A7EBAA07FD
:103DE000A6EB6B0B07EB6A0A458020F8044B478073
:103DF00020F8046BA0F8029020F8048BA0F802A031
:103E000020F804BB03F1010393FAA3FC402BAFD1CC
:103E1000A0EB82014FF0100312090FF2361000F1EF
:103E2000000006B403EB430C6144A2F5803202EBC0
:103E30008332B1F90250B1F90040A1EB0301B0F9AE
:103E400002B0B0F900A000F10400A5EB040E0EFBD7
:103E50000BFC0AEB4B0E05FB0ACB04FB0ECAB1F9B7
:103E60000250B1F90040A1EB0301B0F90290B0F9A2
:103E7000008000F10400A5EB040E0EFB09FC08EB2A
:103E8000490E05FB08C904FB0EC8B1F90250B1F98F
:103E90000040A1EB0301B0F90270B0F9006000F13D
:103EA0000400A5EB040E0EFB07FC06EB470E05FB1A
:103EB00006C704FB0EC6B1F90250B1F9004001F18A
:103EC0000001D044D944A8EB4A0AA9EB4B0B4FEAB6
:103ED000A4044FEAA50504EB264405EB2745A4EB13
:103EE000E636A5EBE73704EB284405EB2945A4EBC0
:103EF000E838A5EBE93906EB2B46A7EB2A47A6EBFA
:103F0000EB3B07EBEA3A4D800C8019444F800E8062
:103F10001944A1F80290A1F800801944A1F802A068
:103F200021F804BBB2F5803283DA03EB430C614421
:103F3000A2F101025FEA024E18BFA0EB0C007FF471
:103F400076AF06BC4FEA830392087FF46AAFBDE800
:103F5000F08F0040000000400000004000005DDDE8
:103F6000213BA3227E180000412D7EA5412D00009B
:103F7000412D00C000405DDD82E75DDD213B7EA577
:103F8000412D004000000040000000400000AA2A2F
:103F900094126B39460649327C0CA8118E234932A3
:103FA0007C0CA3227E1821F77931AA2A9412A81139
:103FB0008E235DDD213BA3227E180000412D95C696
:103FC000B13F461A2B1E58EE3735BEB4C53EA81178
:103FD0008E235DDD213B63A97138DF089A28B7CDB8
:103FE000C53E7EA5412D0000412D00C0004063A9C3
:103FF0002B1E21F77931BEB4C53EBEB47C0C58EE01
:10400000373561AC213B95C6BAF9BAE571383BA7A3
:1040100037355DDD82E75DDD213B7EA5412D21F752
:1040200066D756D53F3D3BA78E23A811C9CAB7CD49
:10403000C53E61AC7E18AA2AC1C295C6B13FBEB4C6
:104040007C0C0040000000400000004000001E3BCF
:10405000B504693E9201C83C2403EB356409C83CB1
:1040600024036B3946066C30060E1E3BB504EB3557
:104070006409AA2A94126B39460649327C0CAE2494
:104080000917AF37D607882E8D0F7E1E5D1BEB35C7
:104090006409AA2A941224188C1F1E34F10AB3262C
:1040A0009015A8118E2349327C0CA3227E18140B84
:1040B00060276C30060E7E1E5D1B7104FB2A882E65
:1040C0008D0F461A2B1EC7FD5A2E9D2C1211FE1560
:1040D000E72021F77931AA2A9412A8118E2387F0BC
:1040E0005334B2281314480D202602EAE536B326CD
:1040F0009015DF089A289CE32B39AE240917710428
:10410000FB2A5DDD213BA3227E180000412D4ED706
:10411000C53C9320EF198FFB6C2F78D1153E7E1E86
:104120005D1B21F77931E2CB0F3F641CC61CB8F24E
:10413000683395C6B13F461A2B1E58EE373597C1E6
:10414000FB3F24188C1F02EAE536F0BCEC3FFE155D
:10415000E720BAE57138A6B8853FD5133D2282E144
:10416000DB39BEB4C53EA8118E235DDD213B40B1D5
:10417000AF3D790FDA244DD9423C2EAE423C480D7A
:10418000202656D53F3D8EAB823A140B602778D15E
:10419000153E63A97138DF089A28B7CDC53EB1A78F
:1041A0001236A906CE2915CA4F3F78A66833710486
:1041B000FB2A95C6B13FBCA576303902212C38C305
:1041C000EC3F7EA5412D0000412D00C00040BCA564
:1041D000CE29C7FD5A2EF0BCEC3F78A620268FFBD7
:1041E0006C2F09BAB13FB1A73D2257F976304DB7D0
:1041F0004F3F63A92B1E21F77931BEB4C53E8EAB6C
:10420000EF19ECF474325EB2153E2EAE9015B8F292
:1042100068332DB03F3D40B1121187F053342EAEBC
:10422000423CBEB47C0C58EE373561AC213BA6B89D
:10423000D6072BEC1236C8AADB39F0BC240302EAFD
:10424000E53663A9713897C16EFEDCE7B03734A854
:10425000E53695C6BAF9BAE571383BA73735E2CBF2
:104260000FF59CE32B3978A6683378D173F082E19F
:10427000DB39EDA579314ED7EDEB6DDF823A99A5AB
:104280006C2F5DDD82E75DDD213B7EA5412D9CE34A
:104290003AE352DBB63B99A5FB2A02EA19DF4DD976
:1042A000423CEDA59A2887F026DB4ED7C53C78A680
:1042B000202621F766D756D53F3D3BA78E23C7FD65
:1042C000DFD363D3AF3D34A8E720710494D078D115
:1042D000153E63A92B1E140B8CCD94CF723EC8AA39
:1042E0005D1BA811C9CAB7CDC53E61AC7E182418A4
:1042F00050C8E2CB0F3F2EAE90157E1E25C615CAC4
:104300004F3F2DB09412AE244AC451C8853F5EB2CF
:104310008D0FAA2AC1C295C6B13FBEB47C0C6C30C9
:104320008EC1E2C4D43F4DB76409EB35B1C038C388
:10433000EC3F09BA46061E3B2CC097C1FB3FF0BCC0
:10434000240370470FB4044910B503AA029800F083
:10435000E3FB10BC5DF814FB440000200FB41CB557
:10436000074B06AA7B4469460090059800F0BBFB0A
:104370000020694600F0CAFB1CBC5DF814FB00007D
:10438000A507000070B5044685690068C10601D51F
:10439000302600E02026C00707D070BDD4E90121F7
:1043A00030469047206A401C20626D1EF6D570BDD5
:1043B00070B5044685690078C00707D170BDD4E99F
:1043C000012120209047206A401C20626D1EF6D5F6
:1043D00070BD00002DE9F0410646002410687529E3
:1043E000314616A510D0AFF30080002802DA404213
:1043F00013A507E031688A0701D512A502E0490735
:1044000004D511A5012401E0AFF3008000210A22A8
:1044100006F1240709E0B0FBF2FCB0FBF2F302FB6B
:104420001C00303078541846491C0028F3D123462C
:104430002A463046BDE8F04100F0E9B8000000002F
:104440002D0000002B0000002000000070B5044685
:104450000D4621461068AFF300802188090502D57A
:104460000F4A7A4402E00E4A7A440E32002104F1E7
:10447000240305E000F00F060009965D5E54491C18
:104480000028F7D120780023000704D5702D02D032
:1044900009B1022311322046BDE8704000F0B7B8E0
:1044A000D62B00002DE9F0474FF0000A894604465C
:1044B000C0F820A02046E1688847002876D025284B
:1044C00006D0D4E901219047206A401C2062F1E720
:1044D000E168204600258847C4F81CA0064600274E
:1044E000C4F818A02A2E09D0304601F068F838B375
:1044F00004EB8708303EC8F8186019E059F8041B2F
:10450000204604EB87029161E1688847012F064647
:1045100018D1E069002820DA25F020051DE0D8F840
:10452000180000EB800006EB40003038C8F8180097
:104530002046E1688847064601F041F80028EED1A0
:10454000012F0AD02E2E08D12046E16888477F1C13
:104550000646022F45F02005C4DBA069002803DAD7
:10456000404245F00105A061E80701D025F01005A3
:10457000B6B1A6F14100192802D8203645F40065ED
:104580004A463146204625604D46FBF70BFE58B1A2
:10459000012806D0ED1D25F0070000F1080989E784
:1045A00004E005F1040985E730468AE7206ABDE8A2
:1045B000F08710B5431C02E010F8011B71B18107B0
:1045C000FAD14FF0013202C88C1A8C4314EAC2119E
:1045D000F9D0C01A0A0603D0C01E10BDC01A10BD03
:1045E0000A0401D0801E10BD0902FCD0401E10BD7F
:1045F000704770477047704710B500F0A3FA006825
:1046000010BD10B5044600F09DFA046010BD2DE900
:10461000F0470D4699469246044600F12408016889
:10462000880604D5E06921F01001216000E0012036
:10463000A84201DD471B00E00027A1697A1902EBBF
:104640000900081AA0612078C00602D42046FFF7AE
:1046500099FE002608E0D4E901211AF806009047E7
:10466000206A401C761C20624E45F4DB2078C00690
:104670000AD52046FFF786FE06E0D4E90121302066
:104680009047206A401C2062381EA7F10107F4DC25
:1046900007E0D4E9012118F805009047206A401C82
:1046A0002062281EA5F10105F3DC2046FFF780FEFD
:1046B0002078000602D50220BDE8F0870120FBE744
:1046C00070472DE9FF4F0C461E464FF0FF378BB069
:1046D000D2E90001DDF860800A908A46C1F30A55EC
:1046E00005B93D46002108464FF00000BAF1000F21
:1046F00000F4400005DA00EB80004FF4400101EACD
:1047000050004FEA9059B9F1010F00DDB9460A98FF
:1047100050EA4A000ED044F61050A5F2FF3545434A
:104720002F14B8F1000F1ED07542291E1EDDC9F1ED
:1047300000021CE0B8F1010F4FF0000001D0302161
:1047400003E0F24305E02154401CB042FBDB30465D
:104750000022002121540B99C1F80880C1E90020F2
:104760000FB0BDE8F08FBD1B6D1CDEE74A4600DAD6
:10477000694206A800F070FA06AB93E8070003ABA5
:1047800083E8070050460A9900F04AFB8DE80700CD
:10479000A0F500501F3800900398002D09DD42F26B
:1047A0001F014A46084403A90390684600F0A9FD8A
:1047B00008E0A0F500504A461F3803A90390684658
:1047C00000F0B3FD8DE807000004000C03D04FF0AB
:1047D000FF30410800E01046B8F1000F03D000227E
:1047E000009215461EE0751E05D400F0AFF9303278
:1047F00062556D1EF9D5B3460122084302D000224E
:104800007F1C04E02078302801D100227F1E002A7E
:10481000099786D01DE0112D07DA00F097F93032A4
:1048200062556D1C50EA0102F5D1084302D0009890
:10483000C8B10EE00021681E05E0235C625C635491
:104840002254401E491C8142F7DBAB46A81B401E88
:104850000990002004F80B000B98099AC0F8088012
:10486000C0E9002B7CE711264FF0000859E72DE93D
:10487000F04F88460446D21D22F0070191B0D1E9DD
:104880000001CDE90A0100F086FE02460B98C00F38
:1048900001D02D2007E02068810701D52B2002E000
:1048A000202101EAC000032A099001D0072A05DB74
:1048B00003464146204600F08FF90BE12078800640
:1048C00001D5E06900E00620B8F1650F814606D009
:1048D000B8F1660F18D0B8F1670F70D131E0002041
:1048E000B9F1110F009001DB112301E009F101037F
:1048F0000AAA01A90CA8FFF7E4FEDDE90C70002666
:1049000009F10105834647E001204B4600904FF036
:1049100000470AAA01A90CA8FFF7D3FEDDE90DB0F4
:104920000C995D46002610B909F101000D18B9EB8C
:10493000050003D4C0F1FF3609F10105A5EB09001C
:104940002BE0B9F1010F01DA4FF001090020B9F1B4
:10495000110F0090484601DD112300E003460AAA2A
:1049600001A90CA8FFF7ADFEDDE90C704D4600264D
:104970008346207800070AD4AB4500DA5D4601A8DB
:10498000012D04DD411911F8011C302907D04F45D4
:1049900002DA17F1040F04DA012082460FE06D1EDF
:1049A000EEE7002F02DCED1B3E4403E0781CA8423A
:1049B00000DD7D1CB81B00F1010A4FF00047207894
:1049C000000703D4AA4501DB4FF0FF3A0021B7F1FD
:1049D000004F0DF143088DF8431024D002202B2303
:1049E000002F01DA7F422D230A21021EA0F10100CF
:1049F00000DC5FB197FBF1FC97FBF1F201FB1C7C43
:104A000017460CF1300C08F801CDEEE7A8F10100D3
:104A100003702188090501D5452100E06521A0F139
:104A2000010800F8011C09980FA9A1EB0807FF1D58
:104A300000B10120411901EBEA70A1693844081A5C
:104A4000401EA0612078C00602D42046FFF79AFCE1
:104A5000099828B1D4E901219047206A401C2062BE
:104A60002078C00622D52046FFF78CFC1EE0002EE1
:104A700004DBB34502DD01A8805D00E03020D4E90D
:104A800001219047206A401C2062761CAAF1010097
:104A90005FEA000A0AD100F051F8C0680168405C82
:104AA000D4E901219047206A401C2062281EA5F10C
:104AB0000105DCDC07E0D4E9012118F8010B90477F
:104AC000206A401C2062381EA7F10107F3DC204653
:104AD000FFF76EFC032011B043E6000001694A1C99
:104AE00002610878704700B58FB0CDE9013100212F
:104AF000059105497944CDE9031011466846FFF751
:104B0000D1FC0FB000BD0000E5FFFFFF0A6802F80E
:104B1000010B0A6070470000074B70B50D467B44DF
:104B2000FFF7E1FF0446284600F004F910B14FF00A
:104B3000FF3070BD204670BDF9D3FFFF00487047BD
:104B40006C290020004870474C29002030B5B0F196
:104B50000A024FEA900E71F100034EEA817EB0EB3B
:104B60000E0061EB91014FEA101E4EEA017E10EB40
:104B70000E0041EB11114FEA102E4EEA016E10EBC0
:104B80000E0041EB11214FEA104E4EEA014E10EBA0
:104B90000E0041EB1141401841F100014FEAD000F5
:104BA00040EA41704FEAD10110EB80054FEA8104E1
:104BB00044EA907444EB01046D1944EB0404521B65
:104BC000A3414FF0000348BF0A3200D530BD401C5E
:104BD00041F1000130BD00002DE9F0411F460446BF
:104BE00003260168072A01F4006004DB08B116A55A
:104BF00005E016A503E008B115A500E015A521F014
:104C000010002060A069C01EA0610FB1401EA0610D
:104C10002046FFF7B7FB4FB1D4E901213846904752
:104C2000206A401C2062C01C206206E0206AFAE76D
:104C3000D4E9012115F8010B9047761EF8D22046E1
:104C4000FFF7B6FBBDE8F0814E414E006E616E008D
:104C5000494E4600696E66002DE9F04781461646CA
:104C60008AB0334878440DC88DE80D003048784448
:104C7000801C03AC0DC884E80D0041F69B3008444D
:104C8000372190FBF1F290FBF1F5A5F1800501FBD6
:104C900012041B3C02D56442012000E00020DFF832
:104CA00090A080460027FA44AAF1BE0A0DE0E00772
:104CB00009D03246684607EB47010AEB810100F054
:104CC00034FB8DE8070064107F1C002CEFD1184FD7
:104CD0007F44AC3F18E0E80714D007EB04100DF157
:104CE000180A90E80E008AE80E00C068F04201D170
:104CF00098190890324606A903A800F016FB03ABEA
:104D000083E807006D10641C002DE4D1324669462B
:104D1000B8F1000F03A802D000F0F3FA01E000F0B0
:104D200004FBC9E90001C9F808200AB0BDE8F08712
:104D300078240000007B00F0800070470048704736
:104D40004C2900207546FFF7F9FFAE46050069467D
:104D5000534620F00700854618B020B5FEF71CFF2B
:104D6000BDE820404FF000064FF000074FF000086C
:104D70004FF0000B21F00701AC46ACE8C009ACE8ED
:104D8000C009ACE8C009ACE8C0098D46704710B551
:104D90000446AFF300802046BDE81040FBF722BA7E
:104DA0004FF0013C50F8042B51F8043B9A4221D1BA
:104DB000A2EB0C03934313EACC1317D150F8042B46
:104DC00051F8043B9A4215D1A2EB0C03934313EA2A
:104DD000CC130BD150F8042B51F8043B9A4209D163
:104DE000A2EB0C03934313EACC13DBD04FF000008B
:104DF000704700BFD01A01BAB1FA81F101F0180171
:104E000022FA01F0CB40C1F12001DBB2C0B2C01ADE
:104E10002CFA01F3D11A914311EAC311E6D170477C
:104E20005FEA400C08BF91F0000F4FEA8C234FEA75
:104E3000C12243EA51514FEA1C5018BF00F5F0401F
:104E40004FEA300018BF41F000415FEA6C5C00F0AF
:104E50002980BCF1FF3F08BF40F080407047130C31
:104E600006BF12044FF0100C4FF0000C130E04BFDD
:104E700012020CF1080C130F04BF12010CF1040C08
:104E8000930F04BF92000CF1020CD30F04BF520029
:104E90000CF1010C11464FF00002A0F11F00A0EB35
:104EA0000C00704711F0004F08BF704731F000410F
:104EB0003FF4D5AF0B0C06BF09044FF0100C4FF0B8
:104EC000000C0B0E04BF09020CF1080C0B0F04BF01
:104ED00009010CF1040C8B0F04BF89000CF1020CCA
:104EE000CB0F04BF49000CF1010CCCF12003A0EB67
:104EF0000C0022FA03F302FA0CF241EA030100F17A
:104F00000100704720F07F4C80EA030023F07F47C8
:104F1000ACEB070303F57C5300F0004003F1FF0303
:104F20002DE980494FEA154B09B44FEA144325EAAD
:104F30000B4E24EA03480FF2042606EB1327490818
:104F40003E785FEA320203FB0667C7F5000707FBFE
:104F500006F64FEA54374FEAD64606F1020607FB3B
:104F6000066CCCF1005C4FEA1C472CEA074C07FBAF
:104F700006F40CFB06F504EB15464FEA961634BF13
:104F800000204FF000404FEAD13706FB07FC4FEA04
:104F90001C4C0CFB0BF7D21B03FB0CF761EB07015E
:104FA0000CFB0EF7B0EB074072EB17420CFB08F757
:104FB00034BFA2EB0742B2EB074261EB17414FEA65
:104FC0000C444FEA910706FB07FC4FEA1C4C0CFB14
:104FD0000BF7B0EBC74072EB573203FB0CF734BF53
:104FE000A2EBC742B2EBC74261EB57310CFB0EF7A5
:104FF000B0EBC70072EB57720CFB08F734BFA2EBA3
:10500000C702B2EBC70261EB5771039F4FEA8161A0
:1050100041EA921104EBCC044FEAD1374FEA8262A5
:1050200006FB07FC42EA90124FEA80604FEA1C4CF4
:105030000CFB0BF7D21B03FB0CF761EB07010CFB1E
:105040000EF7B0EB074072EB17420CFB08F734BFCA
:10505000A2EB0742B2EB074261EB17414FEA8C55D6
:105060004FEA910704EB9C2406FB07FC4FEA1C4C1B
:105070000CFB0BF7B0EBC74072EB573203FB0CF79E
:1050800034BFA2EBC742B2EBC74261EB57310CFB16
:105090000EF7B0EBC70072EB57720CFB08F734BF8A
:1050A000A2EBC702B2EBC70261EB577115EB4C25BF
:1050B0004FEA816141EA92114FEA82624FEAD137A9
:1050C00042EA901206FB07FC44F100044FEA8060BC
:1050D0004FEA1C4C0CFB0BF7D21B03FB0CF761EBEC
:1050E00007010CFB0EF7B0EB074072EB17420CFB0D
:1050F00008F734BFA2EB0742B2EB074261EB17415E
:1051000015EB1C154FEA813141EA92414FEA823298
:1051100042EA90424FEA80304FEA0C7644F10004B4
:1051200048EA03434EEA0B484FF0000EB2EB080C7E
:1051300071EB030724BF624639464EEB0E0E4FF06B
:10514000000B0018524149414BEB0B0BB2EB080C22
:1051500071EB03077BF1000B24BF624639464EEB2F
:105160000E0E4FF0000B0018524149414BEB0B0B58
:10517000B2EB080C71EB03077BF1000B24BF624616
:1051800039464EEB0E0E51EA020718BF46F00106F3
:1051900016EB0E7655F1000254F1000103D5BDE87F
:1051A0008901BDE80088BDE88901BDE80048B6195D
:1051B000524141EB0101A3F10103704780807F7EE2
:1051C0007D7C7B7A7978777676757473727171707D
:1051D0006F6E6E6D6C6C6B6A6A696868676666652F
:1051E0006464636362616160605F5F5E5E5D5D5CBD
:1051F0005C5B5B5A5A59595858575756565555552E
:105200005454535352525251515050504F4F4F4E8D
:105210004E4D4D4D4C4C4C4B4B4B4A4A4A494949DB
:10522000484848474747474646464545454444441D
:10523000444343434342424242414141002B26D42E
:10524000770021D01CB54FEA370703B44FF01000A8
:105250004FF010014FF000000FBCBDE810400BF103
:10526000010BBBF1010F08BF5FEA170722BF12F164
:10527000010211F101014FF0004143F1000300F080
:10528000004043EA00007047F9D35708DAE746EADE
:10529000064613F1400F4FEA16461FDD13F1200FAB
:1052A000DFBF16430A46002120335B42C8D0C3F15A
:1052B000200746EA064602FA07F74FEA164646EA8C
:1052C0000706C3F1200722FA03F201FA07F721FAD1
:1052D00003F14FF0000342EA0702B1E746EA020693
:1052E00046EA06464FEA164646EA0106BCBF46EACB
:1052F0000646360C4FF000034FF000024FF000015D
:105300009EE72DE9C048934630B491E8380007C8BD
:1053100031EA400C48BF34EA430C03D5FFF7F2FDF5
:10532000FFF78CFFF0BCBDE800882DE9C04893462C
:1053300030B491E8380007C810F0804F08BF13F070
:10534000804F03D100F005F8FFF778FFF0BCBDE80F
:10535000008820F07F4780EA030023F07F4C07EBB2
:105360000C03A3F57C5300F00040A3F1FE0392F080
:10537000000F00F0B38095F0000F00F077802DE96A
:1053800001494FEA11404FEA144621EA004800FB68
:1053900006FC24EA064708FB06F607FB08F800FBB4
:1053A00007F718EB06484CEB164C4FEA124B18EB7C
:1053B00007484FEA15464CEB174022EA0B4E0BFB11
:1053C00006FC25EA06470EFB06F607FB0EFE0BFB66
:1053D00007F71EEB064E4CEB164C4FF000061EEB8B
:1053E000074E4CEB174B18EB0B0840F1000018EB85
:1053F0000E0B58EB000840F100008F1A4FF000012F
:105400003CBFC943661B14BFB5EB040C00213CBF75
:10541000C943F61B4FEA17444EEA8E0E27EA0445AD
:105420004FEA1C4704FB07622CEA074C05FB07F711
:105430000CFB05F604FB0CFC16EB074642EB17428F
:1054400016EB0C4642EB1C421BEB060658EB020225
:10545000414146EA9E0601D5BDE80189B61952418F
:1054600041EB0101A3F10103BDE801894FEA1445B5
:105470004FEA114724EA054621EA074C05FB07F4E9
:1054800006FB07F70CFB06F105FB0CFC11EB0741D3
:1054900044EB17444FEA124711EB0C4144EB1C4418
:1054A00022EA074C05FB07F206FB07F70CFB06F6A2
:1054B00005FB0CFC16EB074642EB174216EB0C46BD
:1054C00042EB1C456A1854F1000148BF7047B619F9
:1054D000524141EB0101A3F10103704795F0000F28
:1054E00037D04FEA11424FEA144721EA024624EA34
:1054F000074C02FB07F106FB07F70CFB06F402FB67
:105500000CFC14EB074441EB17414FEA154714EB31
:105510000C4441EB1C4125EA074C02FB07F506FB56
:1055200007F70CFB06F602FB0CFC16EB074645EBF7
:10553000174516EB0C4645EB1C42121951F10001C0
:1055400048BF7047B619524141EB0101A3F1010375
:1055500070474FEA14454FEA114724EA054621EA0D
:10556000074C05FB07F106FB07F70CFB06F24FF0B3
:10557000000605FB0CFC12EB074241EB174112EB56
:105580000C4251EB1C4148BF7047921841EB01019E
:10559000A3F101037047490050EAC12018BF04205D
:1055A0004A0D18BF40F0010040F2FF72B2EB515FAC
:1055B00008BF40F00200012808BF052070473038BE
:1055C0000A2801D201207047002070472DE9F041E0
:1055D00006460F4600F06EF9041E0D4618BF012066
:1055E000284320F00040C0F17F6000F1E040C00F90
:1055F0000ED0301C18BF0120384320F00040C0F10D
:105600007F6000F1E040C00F04BF0120FEF7F9FF0A
:1056100020462946BDE8F08110B500290AD0087857
:10562000002807D005487844FFF7BAFB002801D0CE
:10563000002010BD0248784410BD0000021B00008D
:10564000FA1A000021F00042A2F16052B2F5801F68
:1056500001F0004328BFD2F17F6C0BD95FEA001C38
:1056600043EAC20242EB507018BF704728BF20F0D7
:1056700001007047B2F5801FBCBF184670474FEA63
:10568000410C1CF5001F02D2084600F0BEBC70B5EC
:1056900000F0BCF800000089FFF7F6BF4FF00040B3
:1056A000A0F580007047000002494FF0000000F0B4
:1056B00028BD00BF0000F87FDFF848C170B51CEAC4
:1056C000111E1EBF1CEA13159EEA0C0F95EA0C0F63
:1056D00000F06F8081EA030423EA4C134EEAD47E83
:1056E00021EA4C1141F4801143F48013AE44A1FB34
:1056F000024CA0FB0365AEF17F7E361955EB0C051D
:10570000A1FB034C4CF10003A0FB021C16EB0C06A2
:10571000654153F10003094218BF46F0010613F436
:10572000007F0BD14FEA03314FEA0530340341EAE1
:10573000155140EA16506FF003020AE04FEAC32108
:105740004FEAC520F40241EA555140EA56506FF045
:10575000020202EB2E4201EB025585EACE710AD01D
:105760005FEA440C18BF24F0004450F1000041F1FE
:10577000000120EAD47040F2FE7C624500D270BD88
:10578000A84214BF4FF080444FF04044002E08BFA1
:105790000024BEF1806FA8BFA1F1C041BDE87040F8
:1057A00080F282804FF0000001F1C04101F0004121
:1057B00070479EEA0C0F0CEA131518BF95EA0C0F00
:1057C00006D04FF0000081EA030E0EF0004170BDDC
:1057D00000F01CF88900013E00F007B800F009B89D
:1057E0004FEA430C5FEA5C5C08D081EA030100F0F9
:1057F0005BB84FEA410C5FEA5C5CF6D14FF0000009
:10580000014970470000FF070000F87F0EF1020E0B
:105810002EF0030E5EF8046B364205D4012A43EBEA
:10582000030515F5001F12D8012841EB010C1CF5EA
:10583000001F0CD80ED14FEAD17C15F5001F0CEBE0
:105840004C0C0CF1020C08BF4CEBD37C04E04FF085
:10585000080C01E04FEAD37C0CEB4C0526FA05F668
:1058600006F00706B6F1040C06D20EEB860CBDE876
:1058700070404CF0010C6047DFE80CF0090B0202AD
:105880004FF000414FF00000A1F5002170BD194616
:105890001046012851EB010418BFD4F5001484BF51
:1058A000002001F0004170BD0808A0F500114FEA8A
:1058B000310170472DE9F04101F5801CBCF5001F56
:1058C000C0F2C3804FEA115C21EA0C510CF1FD0CCF
:1058D00041F480115FEA5C0C0CF5C07C01D3400000
:1058E00049413DA4890241EA905187028E0E0A0C7B
:1058F000A45D04FB04F602FB06F6C6F14046A4FBD9
:105900000662F60D46EA422606FB06F4A4FB0123D6
:105910005242C3F1404338BF5B1EA6FB0242002443
:10592000E6FB0324D20B42EA4446A6FB0623A1FB76
:1059300002E2A3FB07E4A4184FF0000252F10002B8
:10594000E3FB01426442C2F1404E38BFAEF1010EAA
:10595000A6FB04234FF00002E6FB0E32A2FB034637
:105960004FF00004B61954F10004E2FB0264A1FBFD
:1059700006E6A4FB07E816EB08064FF0000858F10E
:105980000008E4FB01687642C8F1405838BFA8F12E
:105990000108A2FB06E4A3FB08E52D194FF0000463
:1059A00054F10004E2FB0854A1FB05E6A7FB04E860
:1059B00018EB06084FF0000656F10006E1FB0486DE
:1059C00018F1200556F10006A809A8F11B08B10935
:1059D00008F03F08B8F10A0F40EA86601CD901EBD5
:1059E0000C51BDE8F08100BFFCF5EEE8E2DDD8D354
:1059F000CFCBC7C3C0BDB9B6B4B1AEACA9A7A5A340
:105A0000A19F9D9B9A9896959392908F8D8C8B8950
:105A10008887868584838281A0FB006800FB01F271
:105A200008EB4208B8EB872807D5341858EB010477
:105A3000D5D5401C51F10001D1E7341A78EB0104AF
:105A4000CDD4401E71F10001C9E75FEA4C0C5FEA5A
:105A50009C5C0DD105D34FF0000001F00041BDE882
:105A6000F081BDE8F04170B5FFF7D0FE6DDBFFBE01
:105A7000BDE8F0414FF00000004970470000F87F9A
:105A800043004FEAD30C4FEA3C0C43401FBF400792
:105A90000CF1605113F0FE4F70471CF0006F03D102
:105AA00000200CF0004170470CF0004343EA5070B6
:105AB00010B540EACC0000F062FA00BF000000928E
:105AC0004FEA0001FFF7F0BE4FF000414FF0000039
:105AD000A1F500217047000090EA010F48BF81F056
